{
  "_format": "hh-sol-artifact-1",
  "contractName": "CommuneVoting",
  "sourceName": "contracts/CommuneVoting.sol",
  "abi": [
    {
      "inputs": [],
      "stateMutability": "nonpayable",
      "type": "constructor"
    },
    {
      "anonymous": false,
      "inputs": [
        {
          "components": [
            {
              "internalType": "uint256",
              "name": "id",
              "type": "uint256"
            },
            {
              "internalType": "string",
              "name": "name",
              "type": "string"
            },
            {
              "internalType": "uint256",
              "name": "regId",
              "type": "uint256"
            },
            {
              "internalType": "uint256",
              "name": "voteCount",
              "type": "uint256"
            }
          ],
          "indexed": false,
          "internalType": "struct CommuneVoting.Candidate[]",
          "name": "res",
          "type": "tuple[]"
        }
      ],
      "name": "getWinners",
      "type": "event"
    },
    {
      "inputs": [
        {
          "internalType": "string",
          "name": "name",
          "type": "string"
        },
        {
          "internalType": "uint256",
          "name": "regId",
          "type": "uint256"
        },
        {
          "internalType": "uint256",
          "name": "proposalID",
          "type": "uint256"
        }
      ],
      "name": "addCandidate",
      "outputs": [],
      "stateMutability": "nonpayable",
      "type": "function"
    },
    {
      "inputs": [
        {
          "internalType": "string",
          "name": "name",
          "type": "string"
        }
      ],
      "name": "addProposal",
      "outputs": [],
      "stateMutability": "nonpayable",
      "type": "function"
    },
    {
      "inputs": [
        {
          "internalType": "string",
          "name": "communityID",
          "type": "string"
        },
        {
          "internalType": "string",
          "name": "name",
          "type": "string"
        },
        {
          "internalType": "string",
          "name": "email",
          "type": "string"
        },
        {
          "internalType": "string",
          "name": "pass",
          "type": "string"
        },
        {
          "internalType": "string",
          "name": "cid",
          "type": "string"
        },
        {
          "internalType": "string",
          "name": "authCode",
          "type": "string"
        },
        {
          "internalType": "bool",
          "name": "isValidated",
          "type": "bool"
        }
      ],
      "name": "addUser",
      "outputs": [],
      "stateMutability": "nonpayable",
      "type": "function"
    },
    {
      "inputs": [
        {
          "internalType": "uint256",
          "name": "id",
          "type": "uint256"
        }
      ],
      "name": "auditProposals",
      "outputs": [],
      "stateMutability": "nonpayable",
      "type": "function"
    },
    {
      "inputs": [
        {
          "internalType": "uint256",
          "name": "userID",
          "type": "uint256"
        },
        {
          "internalType": "uint256",
          "name": "proposalID",
          "type": "uint256"
        },
        {
          "internalType": "uint256",
          "name": "candidateID",
          "type": "uint256"
        }
      ],
      "name": "castVote",
      "outputs": [],
      "stateMutability": "nonpayable",
      "type": "function"
    },
    {
      "inputs": [
        {
          "internalType": "uint256",
          "name": "userID",
          "type": "uint256"
        },
        {
          "internalType": "uint256",
          "name": "proposalID",
          "type": "uint256"
        }
      ],
      "name": "checkVote",
      "outputs": [
        {
          "internalType": "bool",
          "name": "",
          "type": "bool"
        }
      ],
      "stateMutability": "view",
      "type": "function"
    },
    {
      "inputs": [
        {
          "internalType": "uint256",
          "name": "proposalID",
          "type": "uint256"
        }
      ],
      "name": "findWinner",
      "outputs": [],
      "stateMutability": "nonpayable",
      "type": "function"
    },
    {
      "inputs": [
        {
          "internalType": "string",
          "name": "data",
          "type": "string"
        }
      ],
      "name": "generateHashed",
      "outputs": [
        {
          "internalType": "bytes32",
          "name": "",
          "type": "bytes32"
        }
      ],
      "stateMutability": "pure",
      "type": "function"
    },
    {
      "inputs": [
        {
          "internalType": "string",
          "name": "data",
          "type": "string"
        }
      ],
      "name": "generatePacked",
      "outputs": [
        {
          "internalType": "bytes32",
          "name": "",
          "type": "bytes32"
        }
      ],
      "stateMutability": "pure",
      "type": "function"
    },
    {
      "inputs": [
        {
          "internalType": "uint256",
          "name": "id",
          "type": "uint256"
        }
      ],
      "name": "getAllMappedProposals",
      "outputs": [
        {
          "components": [
            {
              "internalType": "uint256",
              "name": "id",
              "type": "uint256"
            },
            {
              "internalType": "string",
              "name": "name",
              "type": "string"
            },
            {
              "internalType": "uint256",
              "name": "totalVote",
              "type": "uint256"
            },
            {
              "internalType": "uint256",
              "name": "candidateCount",
              "type": "uint256"
            },
            {
              "internalType": "bool",
              "name": "openForVotes",
              "type": "bool"
            },
            {
              "internalType": "bool",
              "name": "deleted",
              "type": "bool"
            },
            {
              "internalType": "uint256",
              "name": "createdBy",
              "type": "uint256"
            }
          ],
          "internalType": "struct CommuneVoting.Proposal[]",
          "name": "",
          "type": "tuple[]"
        }
      ],
      "stateMutability": "view",
      "type": "function"
    },
    {
      "inputs": [
        {
          "internalType": "uint256",
          "name": "id",
          "type": "uint256"
        }
      ],
      "name": "getCandidates",
      "outputs": [
        {
          "components": [
            {
              "internalType": "uint256",
              "name": "id",
              "type": "uint256"
            },
            {
              "internalType": "string",
              "name": "name",
              "type": "string"
            },
            {
              "internalType": "uint256",
              "name": "regId",
              "type": "uint256"
            },
            {
              "internalType": "uint256",
              "name": "voteCount",
              "type": "uint256"
            }
          ],
          "internalType": "struct CommuneVoting.Candidate[]",
          "name": "",
          "type": "tuple[]"
        }
      ],
      "stateMutability": "view",
      "type": "function"
    },
    {
      "inputs": [
        {
          "internalType": "uint256",
          "name": "proposalID",
          "type": "uint256"
        },
        {
          "internalType": "bool",
          "name": "added",
          "type": "bool"
        }
      ],
      "name": "getListedUserToProposal",
      "outputs": [
        {
          "components": [
            {
              "internalType": "uint256",
              "name": "id",
              "type": "uint256"
            },
            {
              "internalType": "string",
              "name": "communityID",
              "type": "string"
            },
            {
              "internalType": "string",
              "name": "name",
              "type": "string"
            },
            {
              "internalType": "string",
              "name": "email",
              "type": "string"
            },
            {
              "internalType": "bytes32",
              "name": "pass",
              "type": "bytes32"
            },
            {
              "internalType": "string",
              "name": "cid",
              "type": "string"
            },
            {
              "internalType": "string",
              "name": "authCode",
              "type": "string"
            },
            {
              "internalType": "bool",
              "name": "isValidated",
              "type": "bool"
            }
          ],
          "internalType": "struct CommuneVoting.User[]",
          "name": "",
          "type": "tuple[]"
        }
      ],
      "stateMutability": "view",
      "type": "function"
    },
    {
      "inputs": [
        {
          "internalType": "uint256",
          "name": "id",
          "type": "uint256"
        }
      ],
      "name": "getMappedProposals",
      "outputs": [
        {
          "components": [
            {
              "internalType": "uint256",
              "name": "id",
              "type": "uint256"
            },
            {
              "internalType": "string",
              "name": "name",
              "type": "string"
            },
            {
              "internalType": "uint256",
              "name": "totalVote",
              "type": "uint256"
            },
            {
              "internalType": "uint256",
              "name": "candidateCount",
              "type": "uint256"
            },
            {
              "internalType": "bool",
              "name": "openForVotes",
              "type": "bool"
            },
            {
              "internalType": "bool",
              "name": "deleted",
              "type": "bool"
            },
            {
              "internalType": "uint256",
              "name": "createdBy",
              "type": "uint256"
            }
          ],
          "internalType": "struct CommuneVoting.Proposal[]",
          "name": "",
          "type": "tuple[]"
        }
      ],
      "stateMutability": "view",
      "type": "function"
    },
    {
      "inputs": [
        {
          "internalType": "uint256",
          "name": "userID",
          "type": "uint256"
        }
      ],
      "name": "getPolls",
      "outputs": [
        {
          "components": [
            {
              "internalType": "string",
              "name": "poll",
              "type": "string"
            },
            {
              "internalType": "string",
              "name": "candidate",
              "type": "string"
            },
            {
              "internalType": "uint256",
              "name": "time",
              "type": "uint256"
            }
          ],
          "internalType": "struct CommuneVoting.Polls[]",
          "name": "",
          "type": "tuple[]"
        }
      ],
      "stateMutability": "view",
      "type": "function"
    },
    {
      "inputs": [
        {
          "internalType": "bool",
          "name": "openForVotes",
          "type": "bool"
        }
      ],
      "name": "getProposals",
      "outputs": [
        {
          "components": [
            {
              "internalType": "uint256",
              "name": "id",
              "type": "uint256"
            },
            {
              "internalType": "string",
              "name": "name",
              "type": "string"
            },
            {
              "internalType": "uint256",
              "name": "totalVote",
              "type": "uint256"
            },
            {
              "internalType": "uint256",
              "name": "candidateCount",
              "type": "uint256"
            },
            {
              "internalType": "bool",
              "name": "openForVotes",
              "type": "bool"
            },
            {
              "internalType": "bool",
              "name": "deleted",
              "type": "bool"
            },
            {
              "internalType": "uint256",
              "name": "createdBy",
              "type": "uint256"
            }
          ],
          "internalType": "struct CommuneVoting.Proposal[]",
          "name": "",
          "type": "tuple[]"
        }
      ],
      "stateMutability": "view",
      "type": "function"
    },
    {
      "inputs": [],
      "name": "getUserDetails",
      "outputs": [
        {
          "components": [
            {
              "internalType": "uint256",
              "name": "id",
              "type": "uint256"
            },
            {
              "internalType": "string",
              "name": "communityID",
              "type": "string"
            },
            {
              "internalType": "string",
              "name": "name",
              "type": "string"
            },
            {
              "internalType": "string",
              "name": "email",
              "type": "string"
            },
            {
              "internalType": "bytes32",
              "name": "pass",
              "type": "bytes32"
            },
            {
              "internalType": "string",
              "name": "cid",
              "type": "string"
            },
            {
              "internalType": "string",
              "name": "authCode",
              "type": "string"
            },
            {
              "internalType": "bool",
              "name": "isValidated",
              "type": "bool"
            }
          ],
          "internalType": "struct CommuneVoting.User",
          "name": "",
          "type": "tuple"
        }
      ],
      "stateMutability": "view",
      "type": "function"
    },
    {
      "inputs": [],
      "name": "getUserList",
      "outputs": [
        {
          "components": [
            {
              "internalType": "uint256",
              "name": "id",
              "type": "uint256"
            },
            {
              "internalType": "string",
              "name": "communityID",
              "type": "string"
            },
            {
              "internalType": "string",
              "name": "name",
              "type": "string"
            },
            {
              "internalType": "string",
              "name": "email",
              "type": "string"
            },
            {
              "internalType": "bytes32",
              "name": "pass",
              "type": "bytes32"
            },
            {
              "internalType": "string",
              "name": "cid",
              "type": "string"
            },
            {
              "internalType": "string",
              "name": "authCode",
              "type": "string"
            },
            {
              "internalType": "bool",
              "name": "isValidated",
              "type": "bool"
            }
          ],
          "internalType": "struct CommuneVoting.User[]",
          "name": "",
          "type": "tuple[]"
        }
      ],
      "stateMutability": "view",
      "type": "function"
    },
    {
      "inputs": [
        {
          "internalType": "uint256",
          "name": "id",
          "type": "uint256"
        }
      ],
      "name": "getUserRole",
      "outputs": [
        {
          "internalType": "bool",
          "name": "",
          "type": "bool"
        }
      ],
      "stateMutability": "view",
      "type": "function"
    },
    {
      "inputs": [],
      "name": "getVoterList",
      "outputs": [
        {
          "components": [
            {
              "internalType": "uint256",
              "name": "id",
              "type": "uint256"
            },
            {
              "internalType": "string",
              "name": "communityID",
              "type": "string"
            },
            {
              "internalType": "string",
              "name": "name",
              "type": "string"
            },
            {
              "internalType": "string",
              "name": "email",
              "type": "string"
            },
            {
              "internalType": "bytes32",
              "name": "pass",
              "type": "bytes32"
            },
            {
              "internalType": "string",
              "name": "cid",
              "type": "string"
            },
            {
              "internalType": "string",
              "name": "authCode",
              "type": "string"
            },
            {
              "internalType": "bool",
              "name": "isValidated",
              "type": "bool"
            }
          ],
          "internalType": "struct CommuneVoting.User[]",
          "name": "",
          "type": "tuple[]"
        }
      ],
      "stateMutability": "view",
      "type": "function"
    },
    {
      "inputs": [
        {
          "internalType": "uint256",
          "name": "proposalID",
          "type": "uint256"
        }
      ],
      "name": "getWinner",
      "outputs": [
        {
          "components": [
            {
              "internalType": "uint256",
              "name": "id",
              "type": "uint256"
            },
            {
              "internalType": "string",
              "name": "name",
              "type": "string"
            },
            {
              "internalType": "uint256",
              "name": "regId",
              "type": "uint256"
            },
            {
              "internalType": "uint256",
              "name": "voteCount",
              "type": "uint256"
            }
          ],
          "internalType": "struct CommuneVoting.Candidate",
          "name": "",
          "type": "tuple"
        }
      ],
      "stateMutability": "view",
      "type": "function"
    },
    {
      "inputs": [
        {
          "internalType": "uint256",
          "name": "proposalID",
          "type": "uint256"
        },
        {
          "internalType": "uint256",
          "name": "regId",
          "type": "uint256"
        }
      ],
      "name": "isCandidateMapped",
      "outputs": [
        {
          "internalType": "bool",
          "name": "",
          "type": "bool"
        }
      ],
      "stateMutability": "view",
      "type": "function"
    },
    {
      "inputs": [],
      "name": "isUserRegistered",
      "outputs": [
        {
          "internalType": "bool",
          "name": "",
          "type": "bool"
        }
      ],
      "stateMutability": "view",
      "type": "function"
    },
    {
      "inputs": [
        {
          "internalType": "string",
          "name": "pass",
          "type": "string"
        },
        {
          "internalType": "string",
          "name": "communityID",
          "type": "string"
        }
      ],
      "name": "loginUser",
      "outputs": [
        {
          "internalType": "bool",
          "name": "",
          "type": "bool"
        }
      ],
      "stateMutability": "view",
      "type": "function"
    },
    {
      "inputs": [
        {
          "internalType": "uint256",
          "name": "regId",
          "type": "uint256"
        },
        {
          "internalType": "uint256",
          "name": "proposalID",
          "type": "uint256"
        },
        {
          "internalType": "uint256",
          "name": "candidateID",
          "type": "uint256"
        }
      ],
      "name": "mapCandidate",
      "outputs": [],
      "stateMutability": "nonpayable",
      "type": "function"
    },
    {
      "inputs": [
        {
          "internalType": "uint256",
          "name": "id",
          "type": "uint256"
        }
      ],
      "name": "removeProposal",
      "outputs": [],
      "stateMutability": "nonpayable",
      "type": "function"
    },
    {
      "inputs": [
        {
          "internalType": "string",
          "name": "pass",
          "type": "string"
        }
      ],
      "name": "setPass",
      "outputs": [],
      "stateMutability": "nonpayable",
      "type": "function"
    },
    {
      "inputs": [
        {
          "internalType": "uint256",
          "name": "userID",
          "type": "uint256"
        },
        {
          "internalType": "uint256",
          "name": "proposalID",
          "type": "uint256"
        },
        {
          "internalType": "uint256",
          "name": "candidateID",
          "type": "uint256"
        },
        {
          "internalType": "uint256",
          "name": "time",
          "type": "uint256"
        }
      ],
      "name": "setPolls",
      "outputs": [],
      "stateMutability": "nonpayable",
      "type": "function"
    },
    {
      "inputs": [
        {
          "internalType": "uint256",
          "name": "proposalID",
          "type": "uint256"
        },
        {
          "components": [
            {
              "internalType": "uint256",
              "name": "id",
              "type": "uint256"
            },
            {
              "internalType": "string",
              "name": "name",
              "type": "string"
            },
            {
              "internalType": "uint256",
              "name": "regId",
              "type": "uint256"
            },
            {
              "internalType": "uint256",
              "name": "voteCount",
              "type": "uint256"
            }
          ],
          "internalType": "struct CommuneVoting.Candidate",
          "name": "candidate",
          "type": "tuple"
        }
      ],
      "name": "setTieWinner",
      "outputs": [],
      "stateMutability": "nonpayable",
      "type": "function"
    },
    {
      "inputs": [
        {
          "internalType": "uint256",
          "name": "proposalID",
          "type": "uint256"
        },
        {
          "internalType": "uint256",
          "name": "userID",
          "type": "uint256"
        },
        {
          "internalType": "bool",
          "name": "mapOrRemove",
          "type": "bool"
        }
      ],
      "name": "setUserToProposal",
      "outputs": [],
      "stateMutability": "nonpayable",
      "type": "function"
    },
    {
      "inputs": [
        {
          "internalType": "uint256",
          "name": "id",
          "type": "uint256"
        }
      ],
      "name": "switchRole",
      "outputs": [],
      "stateMutability": "nonpayable",
      "type": "function"
    },
    {
      "inputs": [
        {
          "internalType": "uint256",
          "name": "userID",
          "type": "uint256"
        }
      ],
      "name": "validateUser",
      "outputs": [],
      "stateMutability": "nonpayable",
      "type": "function"
    }
  ],
  "bytecode": "0x60806040523480156200001157600080fd5b5060006040518060800160405280604a815260200162004b3b604a9139905060007379119b2fc2f0a573aa2476ca9e8b5aa6fe4cdbd390506000604051806101000160405280600081526020016040518060400160405280600c81526020016b03030303030303030303030360a41b81525081526020016040518060400160405280600381526020016246616d60e81b81525081526020016040518060400160405280601181526020017066616d40636f6d6d756e6561692e6f726760781b8152508152602001620000e9856200033360201b60201c565b81526040805180820182526001808252600360fc1b6020838101919091528085019290925282518084018452601081526f2626a4a6aa29a2a2a42419ab992d1a1b60811b8184015292840192909252606090920181905283548082018555600094855293829020835160089095020193845590820151919291908201906200017290826200040c565b50604082015160028201906200018990826200040c565b5060608201516003820190620001a090826200040c565b506080820151600482015560a08201516005820190620001c190826200040c565b5060c08201516006820190620001d890826200040c565b5060e08201518160070160006101000a81548160ff0219169083151502179055505050600160008081548110620002135762000213620004d8565b6000918252602080832084546001818101875595855291909320600892830290930180549190920290920191825591818101906200025490840182620004ee565b506002818101906200026990840182620004ee565b506003818101906200027e90840182620004ee565b5060048201548160040155600582018160050190816200029f9190620004ee565b50600681810190620002b490840182620004ee565b506007918201549101805460ff909216151560ff199283161790557fe710864318d4a32f37d6ce54cb3fadbef648dd12d8dbdf53973564d56b7f881c8054821660019081179091556001600160a01b039092166000908152600960209081526040808320839055600a9091529020805490911690911790555062000628565b600081604051602001620003489190620005d7565b604051602081830303815290604052805190602001209050919050565b634e487b7160e01b600052604160045260246000fd5b600181811c908216806200039057607f821691505b602082108103620003b157634e487b7160e01b600052602260045260246000fd5b50919050565b601f82111562000407576000816000526020600020601f850160051c81016020861015620003e25750805b601f850160051c820191505b818110156200040357828155600101620003ee565b5050505b505050565b81516001600160401b0381111562000428576200042862000365565b62000440816200043984546200037b565b84620003b7565b602080601f8311600181146200047857600084156200045f5750858301515b600019600386901b1c1916600185901b17855562000403565b600085815260208120601f198616915b82811015620004a95788860151825594840194600190910190840162000488565b5085821015620004c85787850151600019600388901b60f8161c191681555b5050505050600190811b01905550565b634e487b7160e01b600052603260045260246000fd5b818103620004fa575050565b6200050682546200037b565b6001600160401b0381111562000520576200052062000365565b62000531816200043984546200037b565b6000601f8211600181146200056857600083156200054f5750848201545b600019600385901b1c1916600184901b178455620005d0565b600085815260209020601f19841690600086815260209020845b83811015620005a4578286015482556001958601959091019060200162000582565b5085831015620005c35781850154600019600388901b60f8161c191681555b50505060018360011b0184555b5050505050565b60006020808352835180602085015260005b818110156200060757858101830151858201604001528201620005e9565b506000604082860101526040601f19601f8301168501019250505092915050565b61450380620006386000396000f3fe608060405234801561001057600080fd5b50600436106101e55760003560e01c80635c8843061161010f578063ce2dee05116100a2578063e967450611610071578063e967450614610471578063ebfdb43a14610484578063eeadb28014610497578063f3e394e8146104ba57600080fd5b8063ce2dee0514610418578063e0ddc29f14610438578063e4662cc51461044b578063e5922cb01461045e57600080fd5b8063942886be116100de578063942886be146103ae578063b0a035d2146103c3578063b28d92ae146103fb578063b85220431461041057600080fd5b80635c88430614610357578063637d94c31461036a5780637c74a8431461037d578063873138f31461039057600080fd5b80632a7010cd116101875780634129b2c9116101565780634129b2c9146102fe57806344e9fd4b1461031e5780634ce4e6c7146103315780635be5e3ec1461034457600080fd5b80632a7010cd146102a55780632f0e0f35146102b85780632fdae3c5146102cb5780633e39a7a5146102de57600080fd5b8063184f3d55116101c3578063184f3d551461023b5780631970e4461461025e57806322ce12e51461027157806327b7121f1461028457600080fd5b806305e49d1d146101ea5780631032f8a8146101ff5780631430ff5e14610212575b600080fd5b6101fd6101f8366004613a5a565b6104e8565b005b6101fd61020d366004613a5a565b6109f1565b610225610220366004613a5a565b610a5c565b6040516102329190613ac3565b60405180910390f35b61024e610249366004613b72565b610d3b565b6040519015158152602001610232565b6101fd61026c366004613c36565b610d64565b61024e61027f366004613c83565b610ee6565b610297610292366004613ce6565b61129b565b604051908152602001610232565b6101fd6102b3366004613a5a565b6112cb565b6102256102c6366004613a5a565b6113d3565b6101fd6102d9366004613ce6565b61163c565b6102f16102ec366004613a5a565b611770565b6040516102329190613d61565b61031161030c366004613a5a565b6119f3565b6040516102329190613dc5565b6101fd61032c366004613ce6565b611b56565b6101fd61033f366004613a5a565b611b97565b6101fd610352366004613ddf565b611bd7565b6101fd610365366004613ddf565b611d50565b610297610378366004613ce6565b611de1565b61022561038b366004613e1b565b611df4565b61024e336000908152600a602052604090205460ff16151560011490565b6103b66122f6565b6040516102329190613ede565b6101fd6103d1366004613ef1565b60009283526006602090815260408085209385529290529120805460ff1916911515919091179055565b610403612691565b6040516102329190613f26565b610403612a53565b61042b610426366004613a5a565b612ef5565b6040516102329190613f7d565b6101fd610446366004613a5a565b613095565b610403610459366004614002565b6130dd565b6101fd61046c36600461402e565b6135ad565b6101fd61047f366004614060565b613781565b6101fd61049236600461410c565b6137f2565b61024e6104a5366004613a5a565b6000908152600e602052604090205460ff1690565b61024e6104c8366004613b72565b600091825260076020908152604080842092845291905290205460ff1690565b600381815481106104fb576104fb614212565b906000526020600020906006020160040160019054906101000a900460ff161561052457600080fd5b6003818154811061053757610537614212565b600091825260209091206004600690920201015460ff161561055857600080fd5b60006003828154811061056d5761056d614212565b9060005260206000209060060201600201541161058957600080fd5b6002546000906001600160401b038111156105a6576105a6613b94565b60405190808252806020026020018201604052801561060257816020015b6105ef6040518060800160405280600081526020016060815260200160008152602001600081525090565b8152602001906001900390816105c45790505b50905060008060005b6002548110156107cf57600085815260056020908152604080832084845290915290205460ff1680156106625750816002828154811061064d5761064d614212565b90600052602060002090600402016003015410155b801561069357506002818154811061067c5761067c614212565b906000526020600020906004020160020154600014155b156107c757600281815481106106ab576106ab614212565b9060005260206000209060040201600301549150600281815481106106d2576106d2614212565b90600052602060002090600402016040518060800160405290816000820154815260200160018201805461070590614228565b80601f016020809104026020016040519081016040528092919081815260200182805461073190614228565b801561077e5780601f106107535761010080835404028352916020019161077e565b820191906000526020600020905b81548152906001019060200180831161076157829003601f168201915b50505050508152602001600282015481526020016003820154815250508484815181106107ad576107ad614212565b602002602001018190525082806107c390614272565b9350505b60010161060b565b506000826001600160401b038111156107ea576107ea613b94565b60405190808252806020026020018201604052801561084657816020015b6108336040518060800160405280600081526020016060815260200160008152602001600081525090565b8152602001906001900390816108085790505b50905060005b838110156108935784818151811061086657610866614212565b602002602001015182828151811061088057610880614212565b602090810291909101015260010161084c565b508051600003610935576040805160808101825260008082528251808401845260098152682737902bb4b73732b960b91b60208281019190915280840191825283850183905260608401839052898352600b9052929020815181559151909190600182019061090290826142db565b5060408281015160028301556060909201516003909101556000868152600c60205220805460ff191660011790556109b3565b80516001036109b3578060008151811061095157610951614212565b6020908102919091018101516000878152600b8352604090208151815591810151909190600182019061098490826142db565b5060408281015160028301556060909201516003909101556000868152600c60205220805460ff191660011790555b7fde3ec95451320d45232c479523ba489dfcdb8389eabed1e8b17c6871a1f4e294816040516109e29190613d61565b60405180910390a15050505050565b60038181548110610a0457610a04614212565b906000526020600020906006020160040160009054906101000a900460ff161560038281548110610a3757610a37614212565b60009182526020909120600690910201600401805460ff191691151591909117905550565b6003546060906000906001600160401b03811115610a7c57610a7c613b94565b604051908082528060200260200182016040528015610ab557816020015b610aa26139cf565b815260200190600190039081610a9a5790505b5090506000805b600354811015610c915760038181548110610ad957610ad9614212565b600091825260209091206004600690920201015460ff168015610b2b575060038181548110610b0a57610b0a614212565b906000526020600020906006020160040160019054906101000a900460ff16155b8015610b505750600081815260066020908152604080832088845290915290205460ff165b15610c895760038181548110610b6857610b68614212565b90600052602060002090600602016040518060e001604052908160008201548152602001600182018054610b9b90614228565b80601f0160208091040260200160405190810160405280929190818152602001828054610bc790614228565b8015610c145780601f10610be957610100808354040283529160200191610c14565b820191906000526020600020905b815481529060010190602001808311610bf757829003601f168201915b50505091835250506002820154602082015260038201546040820152600482015460ff80821615156060840152610100909104161515608082015260059091015460a0909101528351849084908110610c6f57610c6f614212565b60200260200101819052508180610c8590614272565b9250505b600101610abc565b506000816001600160401b03811115610cac57610cac613b94565b604051908082528060200260200182016040528015610ce557816020015b610cd26139cf565b815260200190600190039081610cca5790505b50905060005b82811015610d3257838181518110610d0557610d05614212565b6020026020010151828281518110610d1f57610d1f614212565b6020908102919091010152600101610ceb565b50949350505050565b600081815260046020908152604080832085845290915290205460ff1615156001145b92915050565b610d6e8183610d3b565b15610dc05760405162461bcd60e51b815260206004820152601c60248201527f5468652063616e64696461746520616c7265616479206164646564210000000060448201526064015b60405180910390fd5b600280546040805160808101825282815260208101878152918101869052600060608201819052600184018555939093528251600483027f405787fa12a823e0f2b7631cc41b3ba8828b3321ca811111fa75cd3aa3bb5ace8101918255915192939290917f405787fa12a823e0f2b7631cc41b3ba8828b3321ca811111fa75cd3aa3bb5acf0190610e5190826142db565b50604082810151600283015560609092015160039182015560008581526004602090815283822086835281528382208054600160ff19918216811790925560058352858420878552909252939091208054909116909217909155805483908110610ebd57610ebd614212565b600091825260208220600360069092020101805491610edb83614272565b919050555050505050565b6000610f06336000908152600a602052604090205460ff16151560011490565b610f0f57600080fd5b3360009081526009602052604081205481548291908110610f3257610f32614212565b90600052602060002090600802016040518061010001604052908160008201548152602001600182018054610f6690614228565b80601f0160208091040260200160405190810160405280929190818152602001828054610f9290614228565b8015610fdf5780601f10610fb457610100808354040283529160200191610fdf565b820191906000526020600020905b815481529060010190602001808311610fc257829003601f168201915b50505050508152602001600282018054610ff890614228565b80601f016020809104026020016040519081016040528092919081815260200182805461102490614228565b80156110715780601f1061104657610100808354040283529160200191611071565b820191906000526020600020905b81548152906001019060200180831161105457829003601f168201915b5050505050815260200160038201805461108a90614228565b80601f01602080910402602001604051908101604052809291908181526020018280546110b690614228565b80156111035780601f106110d857610100808354040283529160200191611103565b820191906000526020600020905b8154815290600101906020018083116110e657829003601f168201915b505050505081526020016004820154815260200160058201805461112690614228565b80601f016020809104026020016040519081016040528092919081815260200182805461115290614228565b801561119f5780601f106111745761010080835404028352916020019161119f565b820191906000526020600020905b81548152906001019060200180831161118257829003601f168201915b505050505081526020016006820180546111b890614228565b80601f01602080910402602001604051908101604052809291908181526020018280546111e490614228565b80156112315780601f1061120657610100808354040283529160200191611231565b820191906000526020600020905b81548152906001019060200180831161121457829003601f168201915b50505091835250506007919091015460ff161515602090910152905060006112588561129b565b9050808260800151148015611280575061127184611de1565b61127e8360200151611de1565b145b1561129057600192505050610d5e565b506000949350505050565b6000816040516020016112ae919061439a565b604051602081830303815290604052805190602001209050919050565b6001600082815481106112e0576112e0614212565b906000526020600020906008020160070160006101000a81548160ff02191690831515021790555060016000828154811061131d5761131d614212565b60009182526020808320845460018181018755958552919093206008928302909301805491909202909201918255918181019061135c908401826143ad565b5060028181019061136f908401826143ad565b50600381810190611382908401826143ad565b5060048201548160040155600582018160050190816113a191906143ad565b506006818101906113b4908401826143ad565b506007918201549101805460ff191660ff909216151591909117905550565b6003546060906000906001600160401b038111156113f3576113f3613b94565b60405190808252806020026020018201604052801561142c57816020015b6114196139cf565b8152602001906001900390816114115790505b5090506000805b60035481101561159b57600081815260066020908152604080832088845290915290205460ff1615611593576003818154811061147257611472614212565b90600052602060002090600602016040518060e0016040529081600082015481526020016001820180546114a590614228565b80601f01602080910402602001604051908101604052809291908181526020018280546114d190614228565b801561151e5780601f106114f35761010080835404028352916020019161151e565b820191906000526020600020905b81548152906001019060200180831161150157829003601f168201915b50505091835250506002820154602082015260038201546040820152600482015460ff80821615156060840152610100909104161515608082015260059091015460a090910152835184908490811061157957611579614212565b6020026020010181905250818061158f90614272565b9250505b600101611433565b506000816001600160401b038111156115b6576115b6613b94565b6040519080825280602002602001820160405280156115ef57816020015b6115dc6139cf565b8152602001906001900390816115d45790505b50905060005b82811015610d325783818151811061160f5761160f614212565b602002602001015182828151811061162957611629614212565b60209081029190910101526001016115f5565b600380546040805160e08101825282815260208082018681526000838501819052606084018190526080840181905260a0840181905233815260099092529281205460c0830152600184018555939093528251600683027fc2575a0e9e593c00f959f8c92f12db2869c3395a3b0502d05e2516446f71f85b8101918255915192939290917fc2575a0e9e593c00f959f8c92f12db2869c3395a3b0502d05e2516446f71f85c01906116ed90826142db565b50604082810151600283015560608301516003830155608083015160048301805460a086015115156101000261ff00199315159390931661ffff199091161791909117905560c0909201516005909101558051808201909152600d81526c4e6f2043616e6469646174657360981b602082015261176c90600083610d64565b5050565b6002546060906000906001600160401b0381111561179057611790613b94565b6040519080825280602002602001820160405280156117ec57816020015b6117d96040518060800160405280600081526020016060815260200160008152602001600081525090565b8152602001906001900390816117ae5790505b5090506000805b60025481101561192f57600085815260056020908152604080832084845290915290205460ff1615611927576002818154811061183257611832614212565b90600052602060002090600402016040518060800160405290816000820154815260200160018201805461186590614228565b80601f016020809104026020016040519081016040528092919081815260200182805461189190614228565b80156118de5780601f106118b3576101008083540402835291602001916118de565b820191906000526020600020905b8154815290600101906020018083116118c157829003601f168201915b505050505081526020016002820154815260200160038201548152505083838151811061190d5761190d614212565b6020026020010181905250818061192390614272565b9250505b6001016117f3565b506000816001600160401b0381111561194a5761194a613b94565b6040519080825280602002602001820160405280156119a657816020015b6119936040518060800160405280600081526020016060815260200160008152602001600081525090565b8152602001906001900390816119685790505b50905060005b82811015610d32578381815181106119c6576119c6614212565b60200260200101518282815181106119e0576119e0614212565b60209081029190910101526001016119ac565b611a1e6040518060800160405280600081526020016060815260200160008152602001600081525090565b6000828152600c602052604090205460ff1615611b0a57600b600083815260200190815260200160002060405180608001604052908160008201548152602001600182018054611a6d90614228565b80601f0160208091040260200160405190810160405280929190818152602001828054611a9990614228565b8015611ae65780601f10611abb57610100808354040283529160200191611ae6565b820191906000526020600020905b815481529060010190602001808311611ac957829003601f168201915b50505050508152602001600282015481526020016003820154815250509050919050565b604051806080016040528060008152602001604051806040016040528060048152602001631b9d5b1b60e21b81525081526020016000815260200160008152509050919050565b919050565b611b5f8161129b565b3360009081526009602052604081205481548110611b7f57611b7f614212565b90600052602060002090600802016004018190555050565b600160038281548110611bac57611bac614212565b906000526020600020906006020160040160016101000a81548160ff02191690831515021790555050565b336000908152600960205260409020548314611c3f5760405162461bcd60e51b815260206004820152602160248201527f546865207573657220646f65736e27742068617665207065726d697373696f6e6044820152602160f81b6064820152608401610db7565b600083815260076020908152604080832085845290915290205460ff1615611c995760405162461bcd60e51b815260206004820152600d60248201526c105b1c9958591e481d9bdd1959609a1b6044820152606401610db7565b60008381526008602090815260408083208584528252808320849055858352600782528083208584529091529020805460ff191660011790556002805482908110611ce657611ce6614212565b600091825260208220600360049092020101805491611d0483614272565b919050555060038281548110611d1c57611d1c614212565b600091825260208220600260069092020101805491611d3a83614272565b9190505550611d4b838383426135ad565b505050565b6000838152600460209081526040808320858452808352818420805460ff8082161560ff19928316178355600586528487208888528652938620805480861615921691909117905593869052909152905416611d4b5760038281548110611db957611db9614212565b600091825260208220600360069092020101805491611dd783614487565b9190505550505050565b6000816040516020016112ae919061449e565b6003546060906000816001600160401b03811115611e1457611e14613b94565b604051908082528060200260200182016040528015611e4d57816020015b611e3a6139cf565b815260200190600190039081611e325790505b509050600080611e6a336000908152600960205260409020541590565b9050835b801561224a578615612063576003611e876001836144ba565b81548110611e9757611e97614212565b906000526020600020906006020160040160019054906101000a900460ff16158015611ec05750865b1561205e57811561200d576003611ed86001836144ba565b81548110611ee857611ee8614212565b90600052602060002090600602016040518060e001604052908160008201548152602001600182018054611f1b90614228565b80601f0160208091040260200160405190810160405280929190818152602001828054611f4790614228565b8015611f945780601f10611f6957610100808354040283529160200191611f94565b820191906000526020600020905b815481529060010190602001808311611f7757829003601f168201915b50505091835250506002820154602082015260038201546040820152600482015460ff80821615156060840152610100909104161515608082015260059091015460a0909101528451859085908110611fef57611fef614212565b6020026020010181905250828061200590614272565b935050612238565b33600090815260096020526040902054600361202a6001846144ba565b8154811061203a5761203a614212565b9060005260206000209060060201600501540361205e576003611ed86001836144ba565b612238565b60036120706001836144ba565b8154811061208057612080614212565b906000526020600020906006020160040160019054906101000a900460ff166122385781156120b6576003611ed86001836144ba565b3360009081526009602052604090205460036120d36001846144ba565b815481106120e3576120e3614212565b906000526020600020906006020160050154036122385760036121076001836144ba565b8154811061211757612117614212565b90600052602060002090600602016040518060e00160405290816000820154815260200160018201805461214a90614228565b80601f016020809104026020016040519081016040528092919081815260200182805461217690614228565b80156121c35780601f10612198576101008083540402835291602001916121c3565b820191906000526020600020905b8154815290600101906020018083116121a657829003601f168201915b50505091835250506002820154602082015260038201546040820152600482015460ff80821615156060840152610100909104161515608082015260059091015460a090910152845185908590811061221e5761221e614212565b6020026020010181905250828061223490614272565b9350505b8061224281614487565b915050611e6e565b506000826001600160401b0381111561226557612265613b94565b60405190808252806020026020018201604052801561229e57816020015b61228b6139cf565b8152602001906001900390816122835790505b50905060005b838110156122eb578481815181106122be576122be614212565b60200260200101518282815181106122d8576122d8614212565b60209081029190910101526001016122a4565b509695505050505050565b6122fe613a10565b336000908152600a602052604090205460ff166123535760405162461bcd60e51b81526020600482015260136024820152725573657220646f65736e27742065786973747360681b6044820152606401610db7565b336000908152600960205260408120548154811061237357612373614212565b906000526020600020906008020160405180610100016040529081600082015481526020016001820180546123a790614228565b80601f01602080910402602001604051908101604052809291908181526020018280546123d390614228565b80156124205780601f106123f557610100808354040283529160200191612420565b820191906000526020600020905b81548152906001019060200180831161240357829003601f168201915b5050505050815260200160028201805461243990614228565b80601f016020809104026020016040519081016040528092919081815260200182805461246590614228565b80156124b25780601f10612487576101008083540402835291602001916124b2565b820191906000526020600020905b81548152906001019060200180831161249557829003601f168201915b505050505081526020016003820180546124cb90614228565b80601f01602080910402602001604051908101604052809291908181526020018280546124f790614228565b80156125445780601f1061251957610100808354040283529160200191612544565b820191906000526020600020905b81548152906001019060200180831161252757829003601f168201915b505050505081526020016004820154815260200160058201805461256790614228565b80601f016020809104026020016040519081016040528092919081815260200182805461259390614228565b80156125e05780601f106125b5576101008083540402835291602001916125e0565b820191906000526020600020905b8154815290600101906020018083116125c357829003601f168201915b505050505081526020016006820180546125f990614228565b80601f016020809104026020016040519081016040528092919081815260200182805461262590614228565b80156126725780601f1061264757610100808354040283529160200191612672565b820191906000526020600020905b81548152906001019060200180831161265557829003601f168201915b50505091835250506007919091015460ff161515602090910152919050565b6001546060906000906001600160401b038111156126b1576126b1613b94565b6040519080825280602002602001820160405280156126ea57816020015b6126d7613a10565b8152602001906001900390816126cf5790505b50905060005b600154811015612a4d576001818154811061270d5761270d614212565b9060005260206000209060080201604051806101000160405290816000820154815260200160018201805461274190614228565b80601f016020809104026020016040519081016040528092919081815260200182805461276d90614228565b80156127ba5780601f1061278f576101008083540402835291602001916127ba565b820191906000526020600020905b81548152906001019060200180831161279d57829003601f168201915b505050505081526020016002820180546127d390614228565b80601f01602080910402602001604051908101604052809291908181526020018280546127ff90614228565b801561284c5780601f106128215761010080835404028352916020019161284c565b820191906000526020600020905b81548152906001019060200180831161282f57829003601f168201915b5050505050815260200160038201805461286590614228565b80601f016020809104026020016040519081016040528092919081815260200182805461289190614228565b80156128de5780601f106128b3576101008083540402835291602001916128de565b820191906000526020600020905b8154815290600101906020018083116128c157829003601f168201915b505050505081526020016004820154815260200160058201805461290190614228565b80601f016020809104026020016040519081016040528092919081815260200182805461292d90614228565b801561297a5780601f1061294f5761010080835404028352916020019161297a565b820191906000526020600020905b81548152906001019060200180831161295d57829003601f168201915b5050505050815260200160068201805461299390614228565b80601f01602080910402602001604051908101604052809291908181526020018280546129bf90614228565b8015612a0c5780601f106129e157610100808354040283529160200191612a0c565b820191906000526020600020905b8154815290600101906020018083116129ef57829003601f168201915b50505091835250506007919091015460ff1615156020909101528251839083908110612a3a57612a3a614212565b60209081029190910101526001016126f0565b50919050565b60008054606091906001600160401b03811115612a7257612a72613b94565b604051908082528060200260200182016040528015612aab57816020015b612a98613a10565b815260200190600190039081612a905790505b5090506000805b600054811015612e4c5760008181548110612acf57612acf614212565b600091825260209091206007600890920201015460ff16612e445760008181548110612afd57612afd614212565b90600052602060002090600802016040518061010001604052908160008201548152602001600182018054612b3190614228565b80601f0160208091040260200160405190810160405280929190818152602001828054612b5d90614228565b8015612baa5780601f10612b7f57610100808354040283529160200191612baa565b820191906000526020600020905b815481529060010190602001808311612b8d57829003601f168201915b50505050508152602001600282018054612bc390614228565b80601f0160208091040260200160405190810160405280929190818152602001828054612bef90614228565b8015612c3c5780601f10612c1157610100808354040283529160200191612c3c565b820191906000526020600020905b815481529060010190602001808311612c1f57829003601f168201915b50505050508152602001600382018054612c5590614228565b80601f0160208091040260200160405190810160405280929190818152602001828054612c8190614228565b8015612cce5780601f10612ca357610100808354040283529160200191612cce565b820191906000526020600020905b815481529060010190602001808311612cb157829003601f168201915b5050505050815260200160048201548152602001600582018054612cf190614228565b80601f0160208091040260200160405190810160405280929190818152602001828054612d1d90614228565b8015612d6a5780601f10612d3f57610100808354040283529160200191612d6a565b820191906000526020600020905b815481529060010190602001808311612d4d57829003601f168201915b50505050508152602001600682018054612d8390614228565b80601f0160208091040260200160405190810160405280929190818152602001828054612daf90614228565b8015612dfc5780601f10612dd157610100808354040283529160200191612dfc565b820191906000526020600020905b815481529060010190602001808311612ddf57829003601f168201915b50505091835250506007919091015460ff1615156020909101528351849084908110612e2a57612e2a614212565b60200260200101819052508180612e4090614272565b9250505b600101612ab2565b506000816001600160401b03811115612e6757612e67613b94565b604051908082528060200260200182016040528015612ea057816020015b612e8d613a10565b815260200190600190039081612e855790505b50905060005b82811015612eed57838181518110612ec057612ec0614212565b6020026020010151828281518110612eda57612eda614212565b6020908102919091010152600101612ea6565b509392505050565b6060600d6000838152602001908152602001600020805480602002602001604051908101604052809291908181526020016000905b8282101561308a5783829060005260206000209060030201604051806060016040529081600082018054612f5d90614228565b80601f0160208091040260200160405190810160405280929190818152602001828054612f8990614228565b8015612fd65780601f10612fab57610100808354040283529160200191612fd6565b820191906000526020600020905b815481529060010190602001808311612fb957829003601f168201915b50505050508152602001600182018054612fef90614228565b80601f016020809104026020016040519081016040528092919081815260200182805461301b90614228565b80156130685780601f1061303d57610100808354040283529160200191613068565b820191906000526020600020905b81548152906001019060200180831161304b57829003601f168201915b5050505050815260200160028201548152505081526020019060010190612f2a565b505050509050919050565b806000036130a257600080fd5b3360009081526009602052604090205481036130bd57600080fd5b6000908152600e60205260409020805460ff19811660ff90911615179055565b60008054606091906001600160401b038111156130fc576130fc613b94565b60405190808252806020026020018201604052801561313557816020015b613122613a10565b81526020019060019003908161311a5790505b5090506000805b600054811015613502576000818154811061315957613159614212565b600091825260209091206007600890920201015460ff16801561319b5750600086815260066020908152604080832084845290915290205460ff161515851515145b156134fa57600081815481106131b3576131b3614212565b906000526020600020906008020160405180610100016040529081600082015481526020016001820180546131e790614228565b80601f016020809104026020016040519081016040528092919081815260200182805461321390614228565b80156132605780601f1061323557610100808354040283529160200191613260565b820191906000526020600020905b81548152906001019060200180831161324357829003601f168201915b5050505050815260200160028201805461327990614228565b80601f01602080910402602001604051908101604052809291908181526020018280546132a590614228565b80156132f25780601f106132c7576101008083540402835291602001916132f2565b820191906000526020600020905b8154815290600101906020018083116132d557829003601f168201915b5050505050815260200160038201805461330b90614228565b80601f016020809104026020016040519081016040528092919081815260200182805461333790614228565b80156133845780601f1061335957610100808354040283529160200191613384565b820191906000526020600020905b81548152906001019060200180831161336757829003601f168201915b50505050508152602001600482015481526020016005820180546133a790614228565b80601f01602080910402602001604051908101604052809291908181526020018280546133d390614228565b80156134205780601f106133f557610100808354040283529160200191613420565b820191906000526020600020905b81548152906001019060200180831161340357829003601f168201915b5050505050815260200160068201805461343990614228565b80601f016020809104026020016040519081016040528092919081815260200182805461346590614228565b80156134b25780601f10613487576101008083540402835291602001916134b2565b820191906000526020600020905b81548152906001019060200180831161349557829003601f168201915b50505091835250506007919091015460ff16151560209091015283518490849081106134e0576134e0614212565b602002602001018190525081806134f690614272565b9250505b60010161313c565b506000816001600160401b0381111561351d5761351d613b94565b60405190808252806020026020018201604052801561355657816020015b613543613a10565b81526020019060019003908161353b5790505b50905060005b828110156135a35783818151811061357657613576614212565b602002602001015182828151811061359057613590614212565b602090810291909101015260010161355c565b5095945050505050565b600d60008581526020019081526020016000206040518060600160405280600386815481106135de576135de614212565b906000526020600020906006020160010180546135fa90614228565b80601f016020809104026020016040519081016040528092919081815260200182805461362690614228565b80156136735780601f1061364857610100808354040283529160200191613673565b820191906000526020600020905b81548152906001019060200180831161365657829003601f168201915b505050505081526020016002858154811061369057613690614212565b906000526020600020906004020160010180546136ac90614228565b80601f01602080910402602001604051908101604052809291908181526020018280546136d890614228565b80156137255780601f106136fa57610100808354040283529160200191613725565b820191906000526020600020905b81548152906001019060200180831161370857829003601f168201915b50505091835250506020908101849052825460018101845560009384529220815191926003020190819061375990826142db565b506020820151600182019061376e90826142db565b5060408201518160020155505050505050565b6060810180519061379182614272565b9052506000828152600b60209081526040909120825181559082015182919060018201906137bf90826142db565b5060408281015160028301556060909201516003909101556000928352600c602052909120805460ff1916600117905550565b613810336000908152600a602052604090205460ff16151560011490565b156138535760405162461bcd60e51b8152602060048201526013602482015272416c726561647920526567697374657265642160681b6044820152606401610db7565b60008054906138618661129b565b336000908152600960209081526040808320869055858352600e8252808320805460ff191690558051610100810182528681529182018d81529082018c9052606082018b90526080820184905260a0820189905260c0820188905286151560e08301528254600181018455928052815160089093027f290decd9548b62a8d60345a988386fc84ba6bc95484008f6362f93160ef3e5638101938455905193945090927f290decd9548b62a8d60345a988386fc84ba6bc95484008f6362f93160ef3e5649091019061393290826142db565b506040820151600282019061394790826142db565b506060820151600382019061395c90826142db565b506080820151600482015560a0820151600582019061397b90826142db565b5060c0820151600682019061399090826142db565b5060e091909101516007909101805491151560ff19928316179055336000908152600a6020526040902080549091166001179055505050505050505050565b6040518060e0016040528060008152602001606081526020016000815260200160008152602001600015158152602001600015158152602001600081525090565b604051806101000160405280600081526020016060815260200160608152602001606081526020016000801916815260200160608152602001606081526020016000151581525090565b600060208284031215613a6c57600080fd5b5035919050565b60005b83811015613a8e578181015183820152602001613a76565b50506000910152565b60008151808452613aaf816020860160208601613a73565b601f01601f19169290920160200192915050565b600060208083018184528085518083526040925060408601915060408160051b87010184880160005b83811015613b6457603f19898403018552815160e08151855288820151818a870152613b1a82870182613a97565b838a0151878b01526060808501519088015260808085015115159088015260a08085015115159088015260c093840151939096019290925250509386019390860190600101613aec565b509098975050505050505050565b60008060408385031215613b8557600080fd5b50508035926020909101359150565b634e487b7160e01b600052604160045260246000fd5b600082601f830112613bbb57600080fd5b81356001600160401b0380821115613bd557613bd5613b94565b604051601f8301601f19908116603f01168101908282118183101715613bfd57613bfd613b94565b81604052838152866020858801011115613c1657600080fd5b836020870160208301376000602085830101528094505050505092915050565b600080600060608486031215613c4b57600080fd5b83356001600160401b03811115613c6157600080fd5b613c6d86828701613baa565b9660208601359650604090950135949350505050565b60008060408385031215613c9657600080fd5b82356001600160401b0380821115613cad57600080fd5b613cb986838701613baa565b93506020850135915080821115613ccf57600080fd5b50613cdc85828601613baa565b9150509250929050565b600060208284031215613cf857600080fd5b81356001600160401b03811115613d0e57600080fd5b613d1a84828501613baa565b949350505050565b805182526000602082015160806020850152613d416080850182613a97565b905060408301516040850152606083015160608501528091505092915050565b600060208083016020845280855180835260408601915060408160051b87010192506020870160005b82811015613db857603f19888603018452613da6858351613d22565b94509285019290850190600101613d8a565b5092979650505050505050565b602081526000613dd86020830184613d22565b9392505050565b600080600060608486031215613df457600080fd5b505081359360208301359350604090920135919050565b80358015158114611b5157600080fd5b600060208284031215613e2d57600080fd5b613dd882613e0b565b6000610100825184526020830151816020860152613e5682860182613a97565b91505060408301518482036040860152613e708282613a97565b91505060608301518482036060860152613e8a8282613a97565b9150506080830151608085015260a083015184820360a0860152613eae8282613a97565b91505060c083015184820360c0860152613ec88282613a97565b91505060e0830151612eed60e086018215159052565b602081526000613dd86020830184613e36565b600080600060608486031215613f0657600080fd5b8335925060208401359150613f1d60408501613e0b565b90509250925092565b600060208083016020845280855180835260408601915060408160051b87010192506020870160005b82811015613db857603f19888603018452613f6b858351613e36565b94509285019290850190600101613f4f565b600060208083018184528085518083526040925060408601915060408160051b87010184880160005b83811015613b6457603f19898403018552815160608151818652613fcc82870182613a97565b915050888201518582038a870152613fe48282613a97565b92890151958901959095525094870194925090860190600101613fa6565b6000806040838503121561401557600080fd5b8235915061402560208401613e0b565b90509250929050565b6000806000806080858703121561404457600080fd5b5050823594602084013594506040840135936060013592509050565b6000806040838503121561407357600080fd5b8235915060208301356001600160401b038082111561409157600080fd5b90840190608082870312156140a557600080fd5b6040516080810181811083821117156140c0576140c0613b94565b604052823581526020830135828111156140d957600080fd5b6140e588828601613baa565b60208301525060408301356040820152606083013560608201528093505050509250929050565b600080600080600080600060e0888a03121561412757600080fd5b87356001600160401b038082111561413e57600080fd5b61414a8b838c01613baa565b985060208a013591508082111561416057600080fd5b61416c8b838c01613baa565b975060408a013591508082111561418257600080fd5b61418e8b838c01613baa565b965060608a01359150808211156141a457600080fd5b6141b08b838c01613baa565b955060808a01359150808211156141c657600080fd5b6141d28b838c01613baa565b945060a08a01359150808211156141e857600080fd5b506141f58a828b01613baa565b92505061420460c08901613e0b565b905092959891949750929550565b634e487b7160e01b600052603260045260246000fd5b600181811c9082168061423c57607f821691505b602082108103612a4d57634e487b7160e01b600052602260045260246000fd5b634e487b7160e01b600052601160045260246000fd5b6000600182016142845761428461425c565b5060010190565b601f821115611d4b576000816000526020600020601f850160051c810160208610156142b45750805b601f850160051c820191505b818110156142d3578281556001016142c0565b505050505050565b81516001600160401b038111156142f4576142f4613b94565b614308816143028454614228565b8461428b565b602080601f83116001811461433d57600084156143255750858301515b600019600386901b1c1916600185901b1785556142d3565b600085815260208120601f198616915b8281101561436c5788860151825594840194600190910190840161434d565b508582101561438a5787850151600019600388901b60f8161c191681555b5050505050600190811b01905550565b602081526000613dd86020830184613a97565b8181036143b8575050565b6143c28254614228565b6001600160401b038111156143d9576143d9613b94565b6143e7816143028454614228565b6000601f82116001811461441b57600083156144035750848201545b600019600385901b1c1916600184901b178455614480565b600085815260209020601f19841690600086815260209020845b838110156144555782860154825560019586019590910190602001614435565b50858310156144735781850154600019600388901b60f8161c191681555b50505060018360011b0184555b5050505050565b6000816144965761449661425c565b506000190190565b600082516144b0818460208701613a73565b9190910192915050565b81810381811115610d5e57610d5e61425c56fea2646970667358221220d68baa8054775fa5d0fa643a94381768a9022af2e57f34ea26e64bc095ebc75a64736f6c634300081800336425346335306532646241352665642664643930552632642d525d373364315d576337332b35347539624b78343536373269623236663070314e6d6b5f2b323063706443286235373132",
  "linkReferences": {},
  "deployedLinkReferences": {}
}